:100000000C9462000C948A000C948A000C948A0070
:100010000C948A000C948A000C948A000C948A0038
:100020000C948A000C948A000C948A000C948A0028
:100030000C948A000C948A000C948A000C948A0018
:100040000C94B1060C948A000C9431050C940B05A9
:100050000C948A000C948A000C948A000C948A00F8
:100060000C948A000C948A000000000025002800EF
:100070002B0000000000240027002A0000000000E0
:1000800023002600290004040404040404040202DA
:100090000202020203030303030301020408102007
:1000A0004080010204081020010204081020000012
:1000B0000008000201000003040700000000000027
:1000C00000006E0B11241FBECFEFD8E0DEBFCDBF06
:1000D00011E0A0E0B1E0EAEDFBE102C005900D9275
:1000E000A433B107D9F722E0A4E3B1E001C01D9227
:1000F000A53CB207E1F710E0C2E6D0E004C02197CA
:10010000FE010E94350CC136D107C9F70E94FB06DB
:100110000C94EB0D0C94000080E991E00895CF92CF
:10012000DF92EF92FF920F931F93CF93DF936C01B7
:100130007A018B01C0E0D0E0CE15DF0581F0D80157
:100140006D918D01D601ED91FC910190F081E02D32
:10015000C6010995892B11F02196EECF7E01C701CA
:10016000DF91CF911F910F91FF90EF90DF90CF9093
:100170000895089580E090E00895FC01538D448D2A
:10018000252F30E0842F90E0821B930B541710F042
:10019000CF96089501970895FC01918D828D98174F
:1001A00061F0828DDF01A80FB11D5D968C91928D5B
:1001B0009F5F9F73928F90E008958FEF9FEF089558
:1001C000FC01918D828D981731F0828DE80FF11D21
:1001D000858D90E008958FEF9FEF0895FC01918D3C
:1001E000228D892F90E0805C9F4F821B91098F7335
:1001F000992708958CE092E00E94EE0021E0892B7F
:1002000009F420E0822F0895FC01848DDF01A80FFE
:10021000B11DA35ABF4F2C91848D90E001968F732E
:100220009927848FA689B7892C93A089B1898C914D
:10023000837080648C93938D848D981306C002889C
:10024000F389E02D80818F7D80830895EF92FF9266
:100250000F931F93CF93DF93EC0181E0888F9B8DE9
:100260008C8D981305C0E889F989808185FD26C0A9
:10027000F62E0B8D10E00F5F1F4F0F731127E02E2E
:100280008C8DE8120CC00FB607FCFACFE889F9890B
:10029000808185FFF5CFCE010E940401F1CF8B8DC7
:1002A000FE01E80FF11DE35AFF4FF0829FB7F8946B
:1002B0000B8FEA89FB89808180620AC09FB7F8941E
:1002C000EE89FF896083E889F98980818370806481
:1002D00080839FBF81E090E0DF91CF911F910F91CC
:1002E000FF90EF900895CF93DF93EC01888D8823E2
:1002F000C9F0EA89FB89808185FD05C0A889B98993
:100300008C9186FD0FC00FB607FCF5CF808185FF6D
:10031000F2CFA889B9898C9185FFEDCFCE010E94DB
:100320000401E7CFDF91CF91089580E090E0892B21
:1003300029F00E94FA0081110C94000008950F9397
:100340001F93CF93DF93209135012F5F322F3770AA
:100350003093350120FF02C020E801C020E031FDCC
:100360002064347009F02062205FFC01EC012396C8
:1003700000E011E06485662331F070E0C8010E945E
:10038000BA0B6F5F01C060E06187322F369F030EAA
:1003900030E0311D1124311102C0168202C03150EB
:1003A0003683662311F0615061873196CE17DF07DF
:1003B00009F7DF91CF911F910F910895539A0895F6
:1003C000EF92FF920F931F93CF93DF93CDB7DEB7DA
:1003D00062970FB6F894DEBF0FBECDBF7C01DC0183
:1003E0001C968C917A8369835C834B835E834D83F7
:1003F0000D871E872F87813029F4CE0101960E9438
:100400009F0106C01C861B861A86198618861F82C5
:1004100083E0888B1A8A198AD701ED91FC910484B4
:10042000F585E02DBE016F5F7F4FC701099562968C
:100430000FB6F894DEBF0FBECDBFDF91CF911F91F5
:100440000F91FF90EF900895EF92FF920F931F93FB
:10045000CF93DF93CDB7DEB762970FB6F894DEBFC8
:100460000FBECDBF7C01DC011C968C917A83698321
:100470005C834B835E834D830D871E872F8781307E
:1004800029F4CE0101960E949F0106C01C861B869E
:100490001A86198618861F82188A1A8A198AD7011D
:1004A000ED91FC910484F585E02DBE016F5F7F4FD7
:1004B000C701099562960FB6F894DEBF0FBECDBF97
:1004C000DF91CF911F910F91FF90EF900895809150
:1004D000560190915701A0915801B0915901880F90
:1004E000991FAA1FBB1FBC01CD01695F7F4F8F4FB2
:1004F0009F4F0E94EB0C9B01AC0160E074E284E72B
:1005000099E40E944A0C0E94BC0C6093FC01709319
:10051000FD018093FE019093FF0108950F931F93B7
:10052000CF93DF9300D01F92CDB7DEB7AB01198216
:100530001A821B82DC01ED91FC910190F081E02D8B
:1005400000E010E020E0BE016F5F7F4F09950F9043
:100550000F900F90DF91CF911F910F910895FC01A3
:1005600085859685089580E090E008954F925F928A
:100570006F927F928F92AF92BF92CF92DF92EF9263
:100580000F931F93CF93DF933C01EB010E94630510
:10059000F30127853089621B730B6A307105B0F354
:1005A000F894E881F9817BB178606BB1677F6BB9B2
:1005B000C9848E812C2D281B822F2E83BF844A80D4
:1005C0005B801C850D85DE841F5F0F5FD3949F8148
:1005D0003885AA84EB844081D20120E0C32F522FBA
:1005E000322F3081442788943111380F08F43FEFBF
:1005F0008195889410FD430F4795889411FD430F12
:100600004795889412FD430F4795889413FD430F37
:100610004795889414FD430F4795889415FD430F23
:100620004795889416FD430F4795889417FD430F0F
:1006300047958894232F1111242F8C0D422F002CC5
:100640007BB900C047FF6BB931812227889400C075
:1006500000C0002C6BB93111390F00C0002C7BB9E0
:1006600000C046FF6BB908F43FEF9195889400C035
:1006700000C0002C6BB900FD230F00C0002C7BB91B
:1006800000C045FF6BB92795889401FD230F00C07A
:1006900000C0002C6BB92795889400C0002C7BB952
:1006A00000C044FF6BB902FD230F2795889400C05A
:1006B00000C0002C6BB903FD230F00C0002C7BB9D8
:1006C00000C043FF6BB92795889404FD230F00C039
:1006D00000C0002C6BB92795889400C0002C7BB912
:1006E00000C042FF6BB905FD230F2795889400C019
:1006F00000C0002C6BB906FD230F00C0002C7BB995
:1007000000C041FF6BB92795889407FD230F00C0F7
:1007100000C0002C6BB92795889400C0002C7BB9D1
:1007200000C040FF6BB9432F0111422F9A0D00C04A
:1007300000C0002C6BB900C000C0002C7BB900C009
:1007400047FF6BB932812227889400C000C0002C7B
:100750006BB931113C0F00C0002C7BB900C046FFC3
:100760006BB908F43FEFEB0DF11D00C000C0002C89
:100770006BB9D0FC230F00C0002C7BB900C045FF33
:100780006BB927958894D1FC230F00C000C0002CC2
:100790006BB92795889400C0002C7BB900C044FF3A
:1007A0006BB9D2FC230F2795889400C000C0002CA1
:1007B0006BB9D3FC230F00C0002C7BB900C043FFF2
:1007C0006BB927958894D4FC230F00C000C0002C7F
:1007D0006BB92795889400C0002C7BB900C042FFFC
:1007E0006BB9D5FC230F2795889400C000C0002C5E
:1007F0006BB9D6FC230F00C0002C7BB900C041FFB1
:100800006BB927958894D7FC230F00C000C0002C3B
:100810006BB92795889400C0002C7BB900C040FFBD
:100820006BB9432FD110422FC19500C000C0002CDE
:100830006BB9CE0D00C000C07BB900C047FF6BB9DB
:1008400030812227889400C000C0002C6BB9311180
:10085000380F00C0002C7BB900C046FF6BB908F40C
:100860003FEF8195889400C000C0002C6BB910FD4B
:10087000230F00C0002C7BB900C045FF6BB9279542
:10088000889411FD230F00C000C0002C6BB9279580
:10089000889400C0002C7BB900C044FF6BB912FDE6
:1008A000230F2795889400C000C0002C6BB913FD5E
:1008B000230F00C0002C7BB900C043FF6BB9279504
:1008C000889414FD230F00C000C0002C6BB927953D
:1008D000889400C0002C7BB900C042FF6BB915FDA5
:1008E000230F2795889400C000C0002C6BB916FD1B
:1008F000230F00C0002C7BB900C041FF6BB92795C6
:10090000889417FD230F00C000C0002C6BB92795F9
:10091000889400C0002C7BB900C040FF6BB9432F06
:100920001111422F8C0D00C000C0002C6BB9119723
:1009300009F086CE20EE31E0D2010E940F0CDC01DE
:10094000CB01F4E0B695A79597958795FA95D1F7E1
:1009500020E030E0B901EAE94E9E040C611D5E9E84
:10096000600D711D1124650D711D860F971FA11D4E
:10097000B11D893E43E09407A105B10508F434C0D8
:10098000885E9340A109B10942E0B695A795979575
:1009900087954A95D1F747E0849F080E211D949FC3
:1009A000200D311D1124290F311D6091340170E09B
:1009B000860F971F820F931F4091060250910702E6
:1009C0006091080270910902292F3327420F531FAB
:1009D000611D711D40930602509307026093080247
:1009E000709309028093340178940E946305F301A7
:1009F000708B6787DF91CF911F910F91EF90DF9000
:100A0000CF90BF90AF908F907F906F905F904F90FE
:100A100008950E94E60D1F920F920FB60F921124B7
:100A20002F933F934F935F936F937F938F939F93F6
:100A3000AF93BF93EF93FF938CE092E00E94040189
:100A4000FF91EF91BF91AF919F918F917F916F91A6
:100A50005F914F913F912F910F900FBE0F901F907C
:100A600018951F920F920FB60F9211242F938F9308
:100A70009F93EF93FF93E0911C02F0911D02808100
:100A8000E0912202F091230282FD12C090818091B8
:100A900025028F5F8F7320912602821751F0E0911B
:100AA0002502F0E0E45FFD4F958F8093250201C0A1
:100AB0008081FF91EF919F918F912F910F900FBEA9
:100AC0000F901F9018953FB7F8948091B7029091BE
:100AD000B802A091B902B091BA0226B5A89B05C090
:100AE0002F3F19F00196A11DB11D3FBFBA2FA92FAD
:100AF000982F8827820F911DA11DB11DBC01CD012A
:100B000042E0660F771F881F991F4A95D1F7089515
:100B10002FB7F89460910602709107028091080245
:100B2000909109022FBF08953F924F925F926F926A
:100B30007F928F929F92AF92BF92CF92DF92EF926D
:100B4000FF920F931F93CF93DF9300D01F92CDB7E7
:100B5000DEB7D090A9028091AC029091AD02A09135
:100B6000AE02B091AF02892B8A2B8B2BE9F00E9449
:100B700063050091C1021091C2022091C30230911D
:100B8000C402DC01CB01801B910BA20BB30B0091C3
:100B9000AC021091AD022091AE023091AF028017ED
:100BA0009107A207B307B8F20E9463056093C102E0
:100BB0007093C2028093C3029093C402E091B40286
:100BC000F091B502309759F04091B0025091B102C6
:100BD0006091B2027091B3028D2D0995D82EE090EC
:100BE0000A02F0900B024D2C512C612C712CE11457
:100BF000F10409F45EC0D7011C96CC901C9780913B
:100C0000AA029091AB028436910510F41C961C92B6
:100C1000D701ED91FC918280938019821A821B8208
:100C2000D11014C009811A812B81F70145855685A1
:100C300062817381C701F4010995D7011C96CC929A
:100C40001C971496ED90FC901597D1CFF70136962E
:100C50008E010F5F1F4F5701B9E0AB0EB11C219100
:100C6000222309F132803320F1F0822F90E0A0E0BE
:100C7000B0E09C01AD012F5F3F4F4F4F5F4FC3016D
:100C8000B2010E94AA0B9B01AC01832D90E0A0E071
:100C9000B0E0BC01CD016F5F7F4F8F4F9F4F0E942F
:100CA000AA0BD8018C930F5F1F4FEA15FB05B9F60D
:100CB000B9CF8091BF029091C0028C010F5F1F4F8E
:100CC0001093C0020093BF024997B4F10E948805B7
:100CD000C090BB02D090BC02E090BD02F090BE027A
:100CE0009B01AC012C193D094E095F0921F421E05B
:100CF00030E040E050E088EE93E0089FB001099FAB
:100D0000700D189F700D1124072E000C880B990B85
:100D10000E94CE0B3093AB022093AA021092C00225
:100D20001092BF020E9488056093BB027093BC02C0
:100D30008093BD029093BE020F900F900F90DF91B1
:100D4000CF911F910F91FF90EF90DF90CF90BF90C8
:100D5000AF909F908F907F906F905F904F903F905B
:100D600008951F920F920FB60F9211242F933F9365
:100D70008F939F93AF93BF93809106029091070248
:100D8000A0910802B09109023091B60223E0230F2E
:100D90002D3720F40196A11DB11D05C026E8230FB3
:100DA0000296A11DB11D2093B60280930602909376
:100DB0000702A0930802B09309028091B7029091B4
:100DC000B802A091B902B091BA020196A11DB11D5D
:100DD0008093B7029093B802A093B902B093BA027D
:100DE000BF91AF919F918F913F912F910F900FBE27
:100DF0000F901F901895789484B5826084BD84B557
:100E0000816084BD85B5826085BD85B5816085BD05
:100E100080916E00816080936E00109281008091BD
:100E20008100826080938100809181008160809345
:100E30008100809180008160809380008091B1006A
:100E400084608093B1008091B00081608093B00095
:100E500080917A00846080937A0080917A00826029
:100E600080937A0080917A00816080937A008091EB
:100E70007A00806880937A001092C100ECE9F0E07B
:100E80002491E8E8F0E084918823C1F090E0880F95
:100E9000991FFC01EE58FF4FC591D491FC01E85910
:100EA000FF4FA591B4913FB7F8949881822F809518
:100EB000982398838C91822B8C933FBF809149011A
:100EC000811145C010923B0110923A018FEF80933F
:100ED0003E0180933F0180934001809341018093C4
:100EE00042018093430181E08093440110924601C6
:100EF0001092450110923D0110923C0180910A022E
:100F000090910B02892B31F488E391E090930B02CE
:100F100080930A02E0913601F0913701309721F079
:100F200088E391E09583848388E391E0909337018F
:100F300080933601109248011092470184E191E0BC
:100F4000909339018093380181E080934901539A4D
:100F500082E691E090933B0180933A0182E390E036
:100F600090934601809345018091AC029091AD022F
:100F7000A091AE02B091AF02843CF9E09F07A105B9
:100F8000B10520F484EC99E0A0E0B0E08093AC02DD
:100F90009093AD02A093AE02B093AF02E0911C0219
:100FA000F0911D0282E08083E0911802F091190215
:100FB0001082E0911A02F0911B0280E1808310926E
:100FC0002402E0912002F091210286E08083E091EA
:100FD0001E02F0911F02808180618083E0911E02D9
:100FE000F0911F02808188608083E0911E02F09161
:100FF0001F02808180688083E0911E02F0911F02B1
:1010000080818F7D808322242394312C79E1472EA7
:10101000512C612C712CD0915501E0EBF0E09491B2
:10102000ECE9F0E08491E8E8F0E02491222309F46F
:101030003AC0992339F1933091F038F49130A9F006
:10104000923001F594B59F7D12C0973091F09830A1
:10105000A1F09430B9F4909180009F7D03C09091ED
:1010600080009F77909380000DC094B59F7794BDCA
:1010700009C09091B0009F7703C09091B0009F7D10
:101080009093B000E22FF0E0EE0FFF1FE458FF4F07
:10109000A591B4919C91892331E020E009F430E0DE
:1010A000832F922F02C080E090E0F1E08F27C82FBD
:1010B000C17080915501C8130BC00E9488056093D0
:1010C000510170935201809353019093540119C0C0
:1010D0000E94880500915101109152012091530105
:1010E00030915401DC01CB01801B910BA20BB30B9F
:1010F0004597A105B10528F0C0935501DC2FC1E04B
:1011000001C0C0E0809104029091050281309105F8
:1011100051F008F4DAC08230910509F455C2039702
:1011200009F4EAC1D8C20E9463050091000210913F
:1011300001022091020230910302DC01CB01801BED
:10114000910BA20BB30B0091FC011091FD012091BA
:10115000FE013091FF01081719072A073B0708F025
:101160005FC00E9463056093000270930102809348
:101170000202909303028091F8019091F901A091ED
:10118000FA01B091FB01883F2FEF9207A207B20747
:1011900084F4C296A11DB11D8093F8019093F901CA
:1011A000A093FA01B093FB01E2E6F1E088EF91E051
:1011B00004C00197A109B109EFCF108211821282F8
:1011C00033968E179F07C9F78091F8019091F90126
:1011D000A091FA01B091FB010097A105B105B9F00A
:1011E000C29662E370E00E94BA0B21E330E0A901ED
:1011F000481B590BCA019A01220F331F820F931FFC
:10120000FC01EE59FE4F108283E38183128282E259
:101210008093F5018093F6011092F7010E949405E6
:10122000CC2309F458C2DD2309F455C28091F8019A
:101230009091F901A091FA01B091FB01AC01BD01BF
:10124000485F5F4F6F4F7F4F413151056105710519
:1012500008F041C2892B8A2B8B2B41F580915601D6
:1012600090915701A0915801B09159010196A11D8B
:10127000B11D8093560190935701A0935801B093EC
:1012800059014092F8015092F9016092FA0170926E
:10129000FB010E94670210925A0110925B011092AA
:1012A0005C0110925D0182E090E00AC010925A0148
:1012B00010925B0110925C0110925D0183E090E05E
:1012C000909305028093040206C20E948805009153
:1012D0005E0110915F012091600130916101DC019C
:1012E000CB01801B910BA20BB30B85369105A10599
:1012F000B10508F4E8C00E94880560935E01709310
:101300005F01809360019093610180915A019091F7
:101310005B01A0915C01B0915D01C297A105B1058F
:1013200044F010925A0110925B0110925C011092ED
:101330005D0102E611E0812C912C5401C0905A010C
:10134000D0905B01E0905C01F0905D01C501B401BB
:101350006C0D7D1D8E1D9F1D22E330E040E050E0AE
:101360000E94F00B072E000C880B990B0E94ED0CCD
:1013700020E030E044E452E40E944A0C20E030E0F7
:101380004FE753E40E94790D0E94BC0C862F8F71A9
:10139000880F880F880F282F55E5259F020E20E023
:1013A000211D1124922F362F3074262F207267FDB5
:1013B00021C031110BC0211104C0892F8095492F04
:1013C00011C045E5490F80E09BEA37C021110DC0EF
:1013D000382F4AEA349F030E30E0311D11248BEA86
:1013E000831B490F982F80E028C050E0492F40957B
:1013F000892F0FC0311112C021110DC0282F3AEAD8
:10140000239F020E20E0211D11244BEA421B85E59B
:10141000820F90E012C0892F809507C0211107C06C
:1014200035E5390F8BEA891B932F40E006C02AEA85
:10143000290F40E085E5891B922F20E052E35523D8
:1014400021F0559F212D09F02F5F2223C1F0992310
:1014500031F0392F329F030E30E0311D932F44239A
:1014600021F0429F040E40E0411D882331F0382FC7
:10147000329F030E30E0311D832F112403C080E022
:1014800040E090E0F801908341838283FFEF8F1A60
:101490009F0AAF0ABF0A0D5F1F4F22E38216910415
:1014A000A104B10409F04ACF3FEFC31AD30AE30AFB
:1014B000F30AC0925A01D0925B01E0925C01F09273
:1014C0005D010E949405CC2309F405C1DD2309F4D4
:1014D00002C11092560110925701109258011092B9
:1014E00059014092F8015092F9016092FA0170920C
:1014F000FB010E9467026CC0CC2339F0DD2329F088
:101500001092050210920402E6C00E948805009124
:101510005E0110915F012091600130916101DC0159
:10152000CB01801B910BA20BB30B85369105A10556
:10153000B10508F4D0C00E94880560935E017093E5
:101540005F01809360019093610140915A01509135
:101550005B0160915C0170915D014931510561054C
:10156000710574F6E2E6F1E080E090E0A3E38A31F1
:10157000910524F09C012951310904C029E130E092
:10158000281B390B8901330F220B330B40175107EE
:101590006207730714F4A08301C0108211821282C3
:1015A000019633968233910511F74F5F5F4F6F4F6E
:1015B0007F4F40935A0150935B0160935C0170939D
:1015C0005D010E94940587C0CC2339F0DD2329F00A
:1015D00030920502209204027EC00E94880500918C
:1015E0005E0110915F012091600130916101DC0189
:1015F000CB01801B910BA20BB30B85369105A10586
:10160000B10508F468C00E94880560935E0170937C
:101610005F01809360019093610160915A01709124
:101620005B0180915C0190915D016C3071058105D9
:101630009105D4F526E030E040E050E00E94F00B48
:10164000633071058105910568F4E2E6F1E01082EE
:1016500011821282339641E0E83FF407C1F70E94FD
:10166000940526C040915601509157016091580150
:1016700070915901E2E6F1E080E090E0DC0148176A
:1016800059076A077B0710F023E301C020E01082AE
:10169000218312820196A11DB11D339682339105DB
:1016A000A105B10561F7DBCF30920502209204025B
:1016B00080915A0190915B01A0915C01B0915D0114
:1016C0000196A11DB11D80935A0190935B01A093D7
:1016D0005C01B0935D010E9495019DCCECE0F2E0CD
:1016E0001382128288EE93E0A0E0B0E084839583B9
:1016F000A683B78386E291E09183808385EC90E0B6
:101700009587848784EC90E09787868780EC90E0CB
:10171000918B808B81EC90E0938B828B82EC90E0BC
:10172000958B848B86EC90E0978B868B118E128E36
:10173000138E148EE9EAF2E08FEF80831282118219
:10174000148613868FEF9FEFDC0187839087A18734
:10175000B2870895DB018F939F930E94160CBF916F
:10176000AF91A29F800D911DA39F900DB29F900DF0
:101770001124089597FB072E16F4009407D077FDE7
:1017800009D00E94210C07FC05D03EF4909581956C
:101790009F4F0895709561957F4F0895A1E21A2E8D
:1017A000AA1BBB1BFD010DC0AA1FBB1FEE1FFF1F05
:1017B000A217B307E407F50720F0A21BB30BE40B55
:1017C000F50B661F771F881F991F1A9469F760959C
:1017D0007095809590959B01AC01BD01CF01089556
:1017E000052E97FB1EF400940E94070C57FD07D0AE
:1017F0000E94CE0B07FC03D04EF40C94070C5095BE
:101800004095309521953F4F4F4F5F4F08959095EC
:101810008095709561957F4F8F4F9F4F08950E94DF
:101820003B0CB7FF0895821B930B08950E943B0C5D
:10183000A59F900DB49F900DA49F800D911D112424
:101840000895AA1BBB1B51E107C0AA1FBB1FA61707
:10185000B70710F0A61BB70B881F991F5A95A9F759
:1018600080959095BC01CD010895EE0FFF1F059066
:10187000F491E02D0994A29FB001B39FC001A39FF2
:10188000700D811D1124911DB29F700D811D1124B9
:10189000911D08950E945E0C0C943F0D0E94380D1E
:1018A00058F00E94310D40F029F45F3F29F00C946C
:1018B000280D51110C94730D0C942E0D0E94500D97
:1018C00068F39923B1F3552391F3951B550BBB276F
:1018D000AA2762177307840738F09F5F5F4F220FB4
:1018E000331F441FAA1FA9F335D00E2E3AF0E0E8AB
:1018F00032D091505040E695001CCAF72BD0FE2FF5
:1019000029D0660F771F881FBB1F26173707480788
:10191000AB07B0E809F0BB0B802DBF01FF27935840
:101920005F4F3AF09E3F510578F00C94280D0C94CF
:10193000730D5F3FE4F3983ED4F3869577956795F2
:10194000B795F7959F5FC9F7880F911D9695879575
:1019500097F90895E1E0660F771F881FBB1F621794
:1019600073078407BA0720F0621B730B840BBA0B52
:10197000EE1F88F7E09508950E94580D88F09F5754
:1019800098F0B92F9927B751B0F0E1F0660F771FA3
:10199000881F991F1AF0BA95C9F714C0B13091F099
:1019A0000E94720DB1E008950C94720D672F782F8C
:1019B0008827B85F39F0B93FCCF38695779567955E
:1019C000B395D9F73EF490958095709561957F4FCA
:1019D0008F4F9F4F0895E89409C097FB3EF4909570
:1019E0008095709561957F4F8F4F9F4F9923A9F0F8
:1019F000F92F96E9BB279395F69587957795679587
:101A0000B795F111F8CFFAF4BB0F11F460FF1BC0CA
:101A10006F5F7F4F8F4F9F4F16C0882311F096E95D
:101A200011C0772321F09EE8872F762F05C066230B
:101A300071F096E8862F70E060E02AF09A95660FC4
:101A4000771F881FDAF7880F9695879597F908957D
:101A500097F99F6780E870E060E008959FEF80EC61
:101A6000089500240A941616170618060906089504
:101A700000240A9412161306140605060895092E6A
:101A80000394000C11F4882352F0BB0F40F4BF2BD9
:101A900011F460FF04C06F5F7F4F8F4F9F4F089519
:101AA00057FD9058440F551F59F05F3F71F047950F
:101AB000880F97FB991F61F09F3F79F087950895F4
:101AC000121613061406551FF2CF4695F1DF08C013
:101AD000161617061806991FF1CF86957105610530
:101AE00008940895E894BB2766277727CB0197F9D8
:101AF00008950E948C0D0C943F0D0E94310D38F01A
:101B00000E94380D20F0952311F00C94280D0C94B0
:101B10002E0D11240C94730D0E94500D70F3959F9F
:101B2000C1F3950F50E0551F629FF001729FBB27D4
:101B3000F00DB11D639FAA27F00DB11DAA1F649F70
:101B40006627B00DA11D661F829F2227B00DA11D23
:101B5000621F739FB00DA11D621F839FA00D611DA9
:101B6000221F749F3327A00D611D231F849F600DCA
:101B7000211D822F762F6A2F11249F5750409AF0F3
:101B8000F1F088234AF0EE0FFF1FBB1F661F771F7F
:101B9000881F91505040A9F79E3F510580F00C944A
:101BA000280D0C94730D5F3FE4F3983ED4F38695B3
:101BB00077956795B795F795E7959F5FC1F7FE2BEA
:101BC000880F911D9695879597F9089581E090E08B
:0A1BD000F8940C94EB0DF894FFCF8D
:101BDA00000000000905090509058E02AF02B302DB
:101BEA00000000002402E001DE018E02AF028C0038
:101BFA00B6020000000026018F00BD007301EE004E
:041C0A00CC00E0002A
:00000001FF
